:100000004025002015160000475F00000116000083
:10001000011600000116000001160000000000009B
:10002000000000000000000000000000D5170000E4
:10003000011600000000000071170000011600000A
:10004000B1190000B1190000B1190000B119000088
:10005000B1190000B1190000B1190000B119000078
:10006000B1190000B1190000B1190000B119000068
:10007000B1190000B1190000B1190000B119000058
:10008000B1190000B1190000B1190000B119000048
:10009000B1190000B1190000B1190000B119000038
:1000A000B1190000B1190000B1190000B119000028
:1000B000B1190000B1190000B1190000B119000018
:1000C000B1190000B1190000B1190000B119000008
:1000D000B1190000B1190000B1190000B1190000F8
:1000E000B1190000B1190000B1190000B1190000E8
:1000F000B1190000B1190000B1190000B1190000D8
:1001000053B94AB9002908BF00281CBF4FF0FF317E
:100110004FF0FF3000F00CB8ADF1080C6DE904CEE3
:1001200000F008F8DDF804E0DDE9022304B07047D0
:10013000704700BF2DE9F04786468C460846089E6A
:10014000154674461946002B40F0C2808542B2FA2B
:1001500082F245D94AB1C2F1200300FA02FC2EFA1C
:1001600003F3954043EA0C0C94404FEA154EA8B2B5
:10017000BCFBFEF8230C0EFB18CC08FB00F943EA8D
:100180000C43994528D9EB1808F1FF3704D299455B
:1001900002D9A8F102072B44A3EB0903A4B2B3FBD5
:1001A000FEFC0EFB1C330CFB00F044EA0344A042AF
:1001B00014D92C190CF1FF3304D2A04202D9ACF1AE
:1001C00002032C44241A43EA07401EB1D440002302
:1001D00034607360BDE8F0874746DDE76346F1E7CA
:1001E00092BB431B01214FEA154EAFB2B3FBFEFC9D
:1001F000200C0EFB1C330CFB07F840EA0343984528
:1002000062D9EB180CF1FF3004D2984502D9ACF159
:1002100002002B44A3EB0803A4B2B3FBFEFC0EFBCD
:100220001C330CFB07F744EA0344A7424ED92C19B0
:100230000CF1FF3304D2A74202D9ACF102032C44E3
:10024000E41B43EA0040C0E7C2F1200320FA03F1B7
:10025000954090402EFA03F303434FEA154EAFB298
:10026000B1FBFEFC0EFB1C10190C0CFB07F841EA5D
:100270000041884504FA02F422D969180CF1FF30D4
:1002800004D2884502D9ACF102002944A1EB08014F
:100290009BB2B1FBFEFC0EFB1C110CFB07F743EA03
:1002A00001439F420ED9EB180CF1FF3104D29F425B
:1002B00002D9ACF102012B44DB1B41EA004192E779
:1002C0006046E3E76146F7E76046A3E76346B7E7C2
:1002D000834206D916B9002108467BE7C6E900E04B
:1002E000F9E7B3FA83F78FB9834201D3724508D88F
:1002F000BEEB020460EB030301209C461EB9002103
:1003000068E73846FAE7C6E9004CF8E7C7F1200C81
:10031000BB4022FA0CF41C432EFA0CF120FA0CF329
:10032000B84001434FEA14490EFA07F5B3FBF9F858
:100330001FFA84FE09FB18300B0C08FB0EFA43EA87
:1003400000439A4502FA07F240D9E31808F1FF305A
:1003500004D29A4502D9A8F102002344A3EB0A0370
:1003600089B2B3FBF9F809FB183308FB0EFE41EA2A
:1003700003418E452CD9611808F1FF3304D28E4514
:1003800002D9A8F10203214443EA0040A0FB0298ED
:10039000A1EB0E014145CE46434602D306D14D4561
:1003A00004D2B9EB020E68EB04030138002EA6D08C
:1003B000B5EB0E0261EB030101FA0CFC22FA07F324
:1003C0004CEA0303F940C6E9003198E74046C5E727
:1003D0004346D9E7000000002DE9F04F054687B0FD
:1003E000214FBB68029304AA5B68012138469847F5
:1003F000002831DBDDE9044A1C4BDFF87480A4FBE4
:1004000003B203FB0A230393039915A3D3E9002343
:100410005846FFF775FE4FF0FF39039BD94578EB3F
:100420000303064618D3A5FB04B405FB0A440CA33A
:10043000D3E9002321465846FFF762FED94578EB01
:100440000404034608D3864206D3029A0121009190
:10045000146838463246A04707B0BDE8F08F00BFA9
:1004600000CA9A3B000000008C6E00008096980045
:10047000FFC99A3B2DE9F04FDFF840A185B0002479
:10048000ADF808408DF80A4055460126286806F068
:100490007EFA30B94A48214605B0BDE8F04F05F074
:1004A000F8BBEB882868297943F480320769D0F8D3
:1004B00008E013F0010F3B6806FA01FC14BF4CEA98
:1004C000030323EA0C033B60DEF800309847024642
:1004D00030B13C48214605B0BDE8F04F05F0D9BB2E
:1004E0000134032C05F10805D0D1DFF8DC80374F4B
:1004F00002AC554600264FF0010B286895F8049091
:1005000003690193826803A952689047019BF0B187
:10051000237883BB012323702D48314605F0B9FBB6
:100520004FF0FF324FF0FF33404604F025F9012E23
:1005300029D0022E36D03B68B3FA83F35B093B60C7
:10054000404604F0DDF8083501340126D5E71A6885
:10055000039B217853400BFA09F913EA090314BFEE
:1005600001220022914206D02270002BD4D11948DA
:10057000314605F08EFB0136032E05F1080504F126
:100580000104BAD114E0D7E90123934205F108052B
:1005900004F1010401DA0133BB60404604F0B0F815
:1005A0000226AAE7BB68013BBB60404604F0A8F8FE
:1005B000002140F6CD4004F085FC99E70871000069
:1005C00070740000A7740000440500205805002046
:1005D000C9740000E174000038B50446074D4FF0BF
:1005E000FF324FF0FF33284604F0C6F8044B5C603E
:1005F0002846BDE8384004F083B800BF4405002019
:100600005805002038B5074C4FF0FF324FF0FF334C
:10061000204604F0B1F8044BDD68204604F070F881
:10062000284638BD44050020580500200246002A0F
:10063000B8BF5242054B0846511E994202D90023C9
:1006400003707047024904F0BFBF00BF9D860100E0
:1006500089760000064A1378312B9FBF0549C8549C
:100660000133002094BF13704FF0FF30704700BF7C
:10067000D00D0020D20D00202DE9F74FBF4CC04D0A
:10068000DFF800830E464FF0000A0A463223014687
:10069000204685F800A088F800A0F7B206F0E9FA35
:1006A000322E2F701CDD2320FFF7D4FF4520FFF7EB
:1006B000D1FF6C20FFF7CEFF3120FFF7CBFF3720B3
:1006C000FFF7C8FF3720FFF7C5FF2120FFF7C2FF64
:1006D000072388F8003085F800A06FF003001BE0C6
:1006E000EFB92320FFF7B6FF4520FFF7B3FF6520E2
:1006F000FFF7B0FF3120FFF7ADFF3720FFF7AAFF6C
:100700003020FFF7A7FF2120FFF7A4FF072388F879
:1007100000302F704FF0FF3003B0BDE8F08F94F839
:100720000090B9F1230F04D1E31913F8016C212EC5
:100730001CD02320FFF78EFF4520FFF78BFF66209C
:10074000FFF788FF3120FFF785FF3720FFF782FF93
:100750003120FFF77FFF2120FFF77CFF072388F878
:10076000003000232B706FF00400D5E794F801B03F
:10077000BBF14D0F23D10421601C05F020FA074680
:10078000002871D02320FFF765FF4520FFF762FFA7
:100790007320FFF75FFF3120FFF75CFF3820FFF782
:1007A00059FF3420FFF756FF2120FFF753FF07239F
:1007B00088F8003000232B706FF00200ACE7BBF12B
:1007C000530F7CD0BBF1430F40F0BB800121601878
:1007D00005F0F5F907460028D4D14846FFF73AFF5F
:1007E0005846FFF737FFFFF70DFF01A9FFF71EFF80
:1007F0009DF80400FFF72EFF9DF80500FFF72AFF84
:100800009DF80600FFF726FF3046FFF723FF9DF80F
:1008100004409DF8053066341C449DF806301C44A5
:10082000E4B26420B4FBF0F030304FF00A08C0B2FC
:10083000FFF710FFB4FBF8F9B9FBF8F008FB1090D4
:10084000303008FB1944C0B23034FFF703FFE0B288
:10085000FFF700FF3046FFF7FDFE4B4801A905F00A
:1008600018FA2F70002057E7A3788DF804308DF820
:100870000600E3788DF8053001A806F00DFA04466D
:10088000FFF7AAFE484688F80070FFF7E3FE452010
:10089000FFF7E0FE6F20FFF7DDFE3120FFF7DAFE05
:1008A0003820FFF7D7FE3020FFF7D4FE3046FFF7A1
:1008B000D1FE36482F70214605F0EBF9D2E7062F1E
:1008C0007FF60BAF0421601C05F079F9074600287C
:1008D0007FF403AFA3788DF80430E3788DF805300A
:1008E0008DF8070023798DF806300DEB010006F036
:1008F000D3F904464FF0FF324FF0FF33244803F0A2
:100900003BFF244B5C61224803F0FAFE484688F81E
:100910000070FFF79FFE4520FFF79CFE6F20FFF75A
:1009200099FE3120FFF796FE3820FFF793FE302026
:10093000FFF790FE3046FFF78DFE17482F702146D7
:10094000BAE74846FFF786FE4520FFF783FE692099
:10095000FFF780FE3120FFF77DFE3720FFF77AFE9C
:100960003420FFF777FE3046FFF774FE072388F840
:10097000003085F800A06FF00100CDE6040E0020E5
:10098000D10D0020D00D00201B750000F97400006F
:1009900044050020580500203275000010B50C48B1
:1009A0000C4C05F058F90C4805F055F921680B4836
:1009B00001310329A8BF0121216005F06AF92368EC
:1009C0000748B0FBF3F0BDE81040FFF705BD00BFDE
:1009D0003071000000000020287100004A750000FE
:1009E0008096980070B5374805F053F9364805F001
:1009F00050F9364C204605F0CAFF30B9216834481A
:100A000005F047F94FF0FF3070BD204605F0BFFFFD
:100A100010B921682F48F3E7204605F0B8FF10B958
:100A200021682D48ECE72D4D284605F0B0FF10B9A0
:100A300029682B48E4E74FF4D0112A4805F0ECF878
:100A4000011E01DA2848DBE74FF4D011274805F0F2
:100A5000E3F8011E01DA2648D2E72649264805F0C8
:100A6000DBF8011E01DA2548CAE7A5682369AE69EB
:100A700086B11B6813F4006F14BF4FF000734FF082
:100A800080630B214FF0A0722046B047011E04DAAC
:100A90001B48B5E76FF05701FAE71A4805F0F9F877
:100AA000194B1A4A5A604FF400629A60EB691BB105
:100AB00015490648012298471548FFF78DFC00208C
:100AC000A2E700BF6275000087750000506E00004D
:100AD000C4750000E87500000C7600008C6E000004
:100AE0003276000030710000557600002871000059
:100AF0008C7600001000010020710000C376000019
:100B0000FC7600003F770000380500209D090000BA
:100B100080841E002DE9F74F4A4C002501272068EC
:100B200005F035FF30B94848294603B0BDE8F04F1D
:100B300005F0AFB8E3882068217943F400320669F4
:100B4000D0F808E013F0010F336807FA01FC14BF76
:100B50004CEA030323EA0C033360DEF800309847C5
:100B600001352046002105F07EF8042D04F108042B
:100B7000D5D1DFF8D8B04FF0FF324FF0FF33344813
:100B800003F0FAFD334BD3E902761C68304803F0DA
:100B9000B7FD2C48214605F066F8BCBB2E4821461F
:100BA00005F061F82D48214605F05DF82C482146F6
:100BB00005F059F8254641F69A10002104F082F913
:100BC000DBF80030DFF89CA0DFF89C90DFF89C8019
:100BD000A3420BD1DAF80030BB4207D1D9F800307C
:100BE000B34203D1D8F80030AB42C4D020480095BE
:100BF00033463A46214604F0D5FCCBF80040CAF80B
:100C00000070C9F80060C8F80050B4E7124800212D
:100C100005F029F81148002105F025F8F51B002101
:100C20000F4805F020F8AB1C042B4FF0010103D84E
:100C3000094805F018F8BEE7AB1CB4BF07480848E0
:100C4000F7E700BF38710000667700001000002051
:100C50004405002058050020407100004871000044
:100C6000507100000C00002008000020040000204B
:100C70008177000008B5064805F00BF800F00AF887
:100C800000F076F800214FF0FA7004F01BF9F9E754
:100C9000AC77000008B5084805F0ECFE074B0022D1
:100CA0001E21C3E9002119201421C3E902011A61A0
:100CB00002225A6108BD00BF4405002058050020EB
:100CC000F0B585B0254C204605F061FE30B92168AD
:100CD000234805B0BDE8F04004F0DBBF216821489F
:100CE0004D2204F0D6FF00238DF802300DF10203EF
:100CF00001930122022302928DF80C30A3681A4E50
:100D00009D6801A94D232046A847184D00238DF862
:100D100003300DF1030301930122032302928DF8A6
:100D20000C30A36801A99F6820464D23B84728B11D
:100D300041F69A10002104F0C5F8E7E79DF9037029
:100D40004FF0FF324FF0FF33284603F015FD3761B7
:100D5000284603F0D5FC4FF40040EBE7786E000026
:100D6000E6770000007800005805002044050020C8
:100D70002DE9F046A5B0294805F009FE28B9284814
:100D800025B0BDE8F04604F084BF244F2548264E28
:100D9000DFF8989004F07DFFBB6801930024019B6D
:100DA0009B6993B10DF10F013846984768B99DF8DA
:100DB0000F300A2B0FD00D2B0DD07E2C05DC04F14B
:100DC00090026A44013402F8803C00214FF4A47080
:100DD00004F078F8E3E70CB90024F6E704F1900397
:100DE0006B440025214604A803F8805CFFF744FC0F
:100DF000304604F04EFF2C46DFF834A00D4D99F834
:100E00000030A34203DC0C4804F043FFE4E71AF887
:100E1000011B284604F03DFF0134F0E7646E00003A
:100E200029780000417800005C780000D00D002097
:100E3000D20D002067780000BF770000014B1B68CF
:100E4000184700BF14000020014B1860704700BF16
:100E50001400002030B585B004460D461022002154
:100E6000684605F08EFF02238DF802302A46044BB7
:100E700001932146684604F045FC05B030BD00BF33
:100E80003D0E000080B505460E461746984604F014
:100E900033F8034605F086FFDFF81890044649F85A
:100EA0000030424630463946A84754F8090000F061
:100EB00031FC00BF080000002DE9F047058B044617
:100EC0002807904611D4022905F0070540F0CD808F
:100ED000204604F054FF78B10138218B042811D842
:100EE000DFE800F0C3106D85950001290CBF45F0C7
:100EF000100545F02005258388F31188BFF36F8F17
:100F0000BDE8F08701F0070AAA4500F0A680002797
:100F1000B9463E46A368002B00F0BD8041F00801B1
:100F2000218388F31188BFF36F8FA168002900F037
:100F3000BB800D68002900F0B780D1F804803346EB
:100F400052462046C047002D76D02B6829461D46C4
:100F5000F0E701F007035A1F012A1BD8002221F0F5
:100F60000701062B276889B2C4E9002209D13B4654
:100F700003E0628B013262831B68002BF9D141F0E0
:100F800002012183204604F0FAFE00287BD041F0C4
:100F9000200177E0042B0AD121F0070189B22183D7
:100FA000204604F0ECFE10B141F020012183218B9A
:100FB00001F0070AAA4550D00027B946AAE72369DD
:100FC00021F0070141F00601062DD3F8009021839E
:100FD0002DD1B9F1000F40D041F00801218388F3F1
:100FE0001188BFF36F8F3A492046C84729E021F0A6
:100FF0000701236941F0040189B2042DD3F804905C
:101000002183E6D000273E464FF0040A82E721F014
:101010000701236941F0050189B2052DD3F8089035
:101020002183D6D000273E464FF0050A72E70027FD
:101030003E464FF0060A6DE72B4687E7B9F1000FF1
:10104000D1D14FF02003EFF3118883F31288BFF35F
:101050006F8F238B23F008032383258BEA062ED57D
:1010600025F01003238305F007056669218B002E08
:10107000BFF66FAF00232768C4E9003321F00701F2
:1010800041F001012183218B01F0070AAA454FF0AD
:1010900000097FF43FAF002F9BD041F0080121836E
:1010A00088F31188BFF36F8F002FC7D03D68394692
:1010B00033465246204604F08EFE2F46F4E7AB0638
:1010C0007FF51AAF25F02003238305F00705FFE61F
:1010D000035E000008B504464FF02002EFF31183D1
:1010E00082F31288BFF36F8F01F0B0FE204600F04C
:1010F000BBFA034804F0CDFD00F034FCFCE700BF70
:101100006A780000014B03600020704758710000AE
:10111000014804F09FB800BF5871000038B504467C
:1011200018B90F4B0F485B6898476168B1F5683F85
:1011300010D0B1F5680F0DD00B4DA9420AD011F4B3
:101140006861206807D00146084805F053FC002379
:101150002360656038BD142205F013FEF9E700BF77
:1011600034010020937800002C5F5CA9700A0020F5
:1011700008B520B34368B3F5683F10D10122036876
:10118000BFF35B8F53E8001F002903D143E8002021
:101190000028F7D1BFF35B8F0DD1002008BD094AAD
:1011A00093420AD000684FF0FF324FF0FF3303F054
:1011B000E3FA0028F1D00448F0E70448EEE76FF4C2
:1011C000E040EBE72C5F5CA9E98FFFFFEA8FFFFFB0
:1011D00008B5D8B14368B3F5683F10D10022036861
:1011E000BFF35B8F53E8001F012903D143E80020C0
:1011F0000028F7D1BFF35B8F0BD1002008BD074A51
:10120000934208D0006803F07BFAF6E76FF4E04001
:10121000F4E70348F2E70348F0E700BF2C5F5CA95E
:10122000E98FFFFFEA8FFFFF10B5044618B91D4B89
:101230001D485B6898476368B3F5683F2FD0B3F5E6
:10124000680F2CD0194A934219D1236803BB184860
:101250004FF0FF324FF0FF33214603F097F908B902
:1012600023681BB90F4B13485B689847206814220A
:10127000002105F086FD4FF46863636008E0B3F574
:10128000683F0DD83A2B03D040F6BA629342DED1C4
:10129000206805F0EFFB636843F03A03636010BD1C
:1012A000054AF3E734010020937800002C5F5CA925
:1012B000700A0020B97800003A00003A08B50649E3
:1012C00006484023142205F087FBBDE80840044986
:1012D000044804F031B800BF70050020700A0020F7
:1012E000607100007471000030BFFFF7FDBF00BFE8
:1012F000114B124A2DE9F041D518DFF84480013D29
:10130000B5FBF3F55D430F4B08EB0304013CB4FB65
:10131000F3F403FB04540E1B07460B49304605F05B
:1013200022FD701942460021083E05F02AFD3E6765
:1013300004F10800BDE8F081010000000000000099
:101340000800000004000000F8700000044B9968D9
:101350005869884203D003494FF080520A607047B1
:10136000C80B002004ED00E070B5264B15469A6AC4
:1013700012F0100F9A6A14BF1124102412F0080FF3
:101380009A6A18BF1224920706460AD5586B9A6AC1
:10139000140634D519B19A6A22F080029A62132495
:1013A00001E06FF01500174B9A6A12F0010F9A6A6C
:1013B00018BF142412F0200F9A6A18BF1524D20601
:1013C00002D49B6A9B070AD50E4B5B68190506D5AC
:1013D000314600F08FFA10B180F309880224094BDE
:1013E0009A6A920642BF5A6A22F400525A629A6A74
:1013F00042F0FF029A6200232B70204670BD6FF00E
:101400001500CCE700ED00E0134B9A6A12F0007F64
:101410009A6A14BF1E201D2012F0807F9A6A18BF9E
:101420001F2012F4002F9A6A18BF212012F4802F77
:101430009A6A18BF222012F4003F9A6A18BF23202C
:1014400012F4803F9A6A6FEA02426FEA12429A628D
:1014500018BF2420704700BF00ED00E010B5194B05
:101460000246986A9C6A10F4805F14BF1720162009
:1014700014F4006F9C6A18BF1820A40509D5986B56
:10148000986A000404D51AB19A6A22F400429A625A
:1014900019200C4B9A6A12F4806F9A6A18BF1A20AE
:1014A000D2050CD49B6A13F4005F18BF1C20054AB8
:1014B000936A43F47F43936200230B7010BD1B209B
:1014C000F5E700BF00ED00E0F0B5484B5B688BB07E
:1014D0000446C3F30803002585F31188BFF36F8F1B
:1014E00002F07F40B0F17F4F11D102F00C000828CC
:1014F0000DD010074CBF0C4601250022033B8DF890
:101500000720032B05D8DFE803F0246367602C462F
:10151000F3E700239DF80720CAB902AE04F12007C3
:1015200020686168324603C20834BC421646F7D1CF
:10153000099A002D54D0C2F3080121B96FEA522252
:101540006FEA4222099202A9184604F0F6FC0BB099
:10155000F0BD264BDA6A9107DBD4DA6A002AD8DBC1
:10156000DA6A5200D5D55A69A16942F480725A618B
:10157000BFF34F8FBFF36F8F5A6931F8021C22F40B
:1015800080725A61BFF34F8FBFF36F8F4DF60272B7
:1015900091420AD09A6AD2B24AB10DF107020121F2
:1015A0002046FFF7E1FE0346B4E72368B2E79A6AF4
:1015B00012F47F4F05D00DF107010120FFF74EFF18
:1015C000F1E79B6AB3F5803FA3D3FFF71DFFEAE77E
:1015D0000DF107020021E3E70DF107010020EDE71F
:1015E00022F4FF7222F00102ACE700BF00ED00E040
:1015F000024A536943F010035361704700ED00E065
:10160000EFF30880EFF3098101B57246FFF75CFF45
:1016100001BD00BF002080F31488BFF36F8F00F07E
:1016200033FB00200D490860BFF34F8F0C4880F357
:10163000088800F03DF8202080F3118809484FF415
:101640000461401880F30988EFF3148002210843F5
:1016500080F31488BFF36F8F00F014F994ED00E06D
:101660004025002080170020BFF34F8F0549064B0F
:10167000CA6802F4E0621343CB60BFF34F8F00BF30
:10168000FDE700BF00ED00E00400FA050749D1F8CE
:1016900090200023C2F307221846934200DB7047D4
:1016A000C1F89830C1F8A0000133F6E700ED00E082
:1016B00008B572B6002383F31388FFF7E7FF144BD6
:1016C0004FF0FF32C3F88020C3F88420C3F888208D
:1016D000C3F88C20C3F89020C3F89420C3F8982056
:1016E000C3F89C20C3F88021C3F88421C3F8882163
:1016F000C3F88C21C3F89021C3F89421C3F8982132
:10170000C3F89C2162B6BFF34F8FBFF36F8F08BD44
:1017100000E100E0084B9B6883420BD1EFF30583A7
:1017200043B1064B5A6842F080525A605A6A22F41A
:1017300000425A6205F062BAC80B002000ED00E0DA
:10174000094A93686FF00A019967084958674B681E
:1017500043F080534B60002383F31188BFF36F8FF6
:101760009368986F704700BFC80B002000ED00E041
:1017700015498A684FF030001044EFF3098C80E877
:10178000F01F202080F31288BFF36F8F0F4F4FF0B0
:1017900000664A698A603E604FF070041419206840
:1017A0000B4C2060506F0023536780F3118804B501
:1017B000104600F01DF9BDE8044002F1300090E849
:1017C000F01F8CF309887047C80B002004ED00E07F
:1017D0008C0A00201EF0040F0CBFEFF30880EFF31B
:1017E0000980816911F8021C0229FFD001B504F0BB
:1017F000A6FB01BD40B2002807DB044A41090123D2
:1018000000F01F00834042F82130704700E100E003
:1018100040B200280CDB4309064900F01F002033CA
:101820000122824041F82320BFF34F8FBFF36F8F17
:10183000704700BF00E100E0054B420900F01F00C7
:1018400053F82220012303FA00F01040704700BF34
:1018500000E100E040B20028A8BF00F1604001F1C3
:101860000101B8BF064B4FEA4111ACBF00F5614022
:1018700000F00F00C9B2B4BF195480F800137047CC
:1018800014ED00E00B4A08B50B4B22F07F029A6082
:10189000BFF34F8FBFF36F8FD3F8882022F470020D
:1018A000C3F8882002F0A0FD03F02CFB00F074F8D0
:1018B00002F0ECFD0000000000ED00E042F8203CEA
:1018C000009B42F81C3C0A49019B42F8183C029BD1
:1018D00042F8143C21F001014FF0807342F8043CBF
:1018E00042F8081C0023203A02654367704700BF96
:1018F000850E0000094A0346906870B113F1160F77
:10190000006E05D0A0F140029A4205D8834203D26E
:10191000814228BF0020704700207047C80B00207C
:1019200008B514460A4A0B4B9060026F1A600D46C8
:1019300000F05EF8204685F30988002163B681F344
:101940001188BFF36F8F00220023FFF79BFA00BFBF
:10195000C80B00208C0A0020014910220A60704741
:1019600010ED00E072B6404080F31188BFF36F8F36
:10197000BFF34F8F30BF62B6BFF36F8F704700BFAA
:1019800072B6494081F31188BFF34F8F20BF80F3B7
:10199000118862B6704700BF044800232021C21896
:1019A0000133302B82F80013F9D1704700E100E0D9
:1019B00001B5EFF30580A0F110004FEAC000044923
:1019C000014409C99847BDE80140024908470000A1
:1019D000B46E00004D130000024B034A034801217E
:1019E00000F040B8000004200000002084710000D6
:1019F000026E054B403A1A60044A4021C3E90112C5
:101A00001846012100F038B8900A002000000B159C
:101A1000084AC2F898000B6823F01F03034343F001
:101A20001003C2F89C308B6843F00103C2F8A03069
:101A3000704700BF00ED00E0044B0522C3F894207E
:101A4000BFF34F8FBFF36F8F704700BF00ED00E013
:101A5000BFF35F8F024B0022C3F89420704700BF92
:101A600000ED00E010B5034C0123227804F086FA63
:101A7000207010BD360E002008B5094A00231278E8
:101A800004F07CFA10F1160F03D0064B0022072851
:101A900000DD08BDC3F89800C3F8A0200130F6E7C8
:101AA000360E002000ED00E0F0B5454D2C68082C06
:101AB00085B000F28280FFF7CBFF00200C26844225
:101AC0000DD1404D404F2C706846FFF71BFB0024A2
:101AD0000646A6420AD1FFF7AFFF00201CE0696866
:101AE00006FB0011FFF794FF0130E8E7009800EBD8
:101AF00004114FEA041CCB683B40B3F5000F4AD0F9
:101B00000CD8B3F5001F30D0B3F5800F38D0B3F543
:101B1000801F12D06FF0150005B0F0BDB3F1807FCB
:101B200042D0B3F1007FF5D150F80C3088684A6894
:101B300004F014FA40F4802009E050F80C30886872
:101B40004A6804F00BFA40F0885040F430200390CB
:101B500028780728CDE90123DCD801A9FFF758FF31
:101B60002B7801332B700134B3E750F80C308868C0
:101B70004A6804F0F3F940F0885040F40020E6E7AA
:101B800050F80C3088684A6804F0E8F940F0E060EA
:101B900040F40030DBE750F80C3088684A6804F005
:101BA000DDF940F08270D2E750F80C3088684A685E
:101BB00004F0D4F940F08870C9E74FF0FF30ABE78C
:101BC00090710000360E00200000F0FF08B5024BB7
:101BD0001B689847002008BD9C0A0020034B044A5C
:101BE0001860937843F00203937070479C0A0020BA
:101BF0003800002008B5044804F04BF8404080F35A
:101C000011884FF0020002DFF578000008B50649A0
:101C1000064821F00701C1F1005202F5802204F0CC
:101C200071F8002008BD00BF87250020A00A002011
:101C30000E4A0123C2F840354FF080424FF08051E8
:101C4000C2F87835D1F83001082808D1D1F834111C
:101C5000052904D80648415C09B1C2F838364FF06E
:101C600080430122C3F880250020704700E0014036
:101C70001379000020B1034B800143F001031847A2
:101C8000704700BF0071000001F012B9084B70B539
:101C9000C31A0D4607499B10044659430648402283
:101CA00004F0BBF92B4601462046BDE870401847BA
:101CB000C00A0020B76DDBB6286E000073B50C4C6F
:101CC0000C4A4023041B00930D460B460A49A410FE
:101CD00061430646094804F0CDF9011E05DA304695
:101CE0002B4602B0BDE87040184702B070BD00BF7F
:101CF000C00A0020E1600000B76DDBB6286E00006E
:101D0000002270B5012104461046FFF7A3FD0F48DD
:101D100001F058FA0E4B984215D101F063FA26698A
:101D20000C49304604F07BF800280BDB01253564B4
:101D30002469084904F11C0004F071F8002801DB53
:101D4000E564002070BD6FF00400FBE78D1D00000E
:101D50000000AD0BB471000070B501460C230948BA
:101D60004B43C418D4E90E56403300221844A263F2
:101D700004F040F92DB132462B460348BDE87040CF
:101D8000184770BDC00A0020286E000010B101285D
:101D900004D07047034B1B6C5B0701D1FFF7DCBF1E
:101DA000704700BFC00A002008B54FF02003EFF3D2
:101DB000118183F31288BFF36F8F124A136843F0C7
:101DC00002001060DA0708D481F31188BFF36F8F27
:101DD0000120BDE8084001F017BA4FF08043D3F866
:101DE0000C24D3F80C34DB07EED5074804F002F9D5
:101DF00081F31188BFF36F8F0020BDE80840FFF723
:101E0000ABBF00BF100B0020000B00201FB500224D
:101E10000123CDE90223094ACDF800D06B46CDF865
:101E200004D004F056F9002805DB4FF4804200236B
:101E3000684602F03FFD05B05DF804FBFF6000005E
:101E400010B54FF02003EFF3118483F31288BFF332
:101E50006F8F074A136823F00201DB07116002D479
:101E6000012004F007FC84F31188BFF36F8F10BDCD
:101E7000100B00202DE9F0413849BFF35B8F074676
:101E8000012251E8003F41E800200028F9D1BFF3CA
:101E90005B8F33B9324933484B60CB608A6003F0C3
:101EA000D1FF7B1E012B2BD8012F07D14FF0804390
:101EB000D3F81C3403F00303012B21D004F0C0FD40
:101EC0000546F8B9284B1B78E3B14FF08043022256
:101ED000C3F808230646DFF894804FF08044D4F816
:101EE0001824D4F81834D20316D503F00303012BB9
:101EF00001D0012F10D15DB386F31188BFF36F8F2E
:101F0000BDE8F0814FF02003EFF3118683F31288D0
:101F1000BFF36F8F0125DEE7ADB13046FFF730FD2F
:101F2000D4F81835002BDAD1D4F80421002AD6D001
:101F3000C4F80431D4F804310123C4F81835C8F8C2
:101F40008031A360CBE70021212002F0BBFFE7E74F
:101F50004FF080430222C3F80423D1E7BC0A0020DB
:101F6000AC0A0020DC0A0020590E002000E100E04D
:101F700008B5074804F00BFD38B10648FFF72EFE00
:101F80000448FEF761FF002008BD6FF01200FBE778
:101F9000646E0000991F00000A2838B5074D0446FA
:101FA00004D1AB680D21DB6928469847AB6803482C
:101FB000DB69E1B29847204638BD00BF646E00007F
:101FC000F0B54068057B01F01F0444EA451405693B
:101FD00087B0002D64D0B2F5001F00F1100506D1C6
:101FE0002146284604F0C6FB002007B0F0BD01AE34
:101FF0000027B2F5800F0197776039D1B3F1007FE8
:1020000014BF052304238DF804300023CDE90463B5
:102010000393836823FA01F111F001011AD1B2F19F
:10202000A07F17D104F01F03620903F5E0732AD0E3
:10203000012A3BD11F4A52F82330DB070AD40DF1A5
:10204000030632462146284601F0BCFB1A4B984253
:102050001CD0029603AA2146284601F075FA174BB8
:10206000984220D101222146284601F013FCBBE70B
:10207000B3F1C06F05D0B3F1007F14BF0123022379
:10208000C1E70323BFE74FF0A042D4E7314628461B
:1020900001F0FAFB094B9842DBD06FF00B00A4E78C
:1020A0006FF08500A1E76FF015009EE751F823302F
:1020B000FFDE00BF000300500400AD0B0000AD0BBD
:1020C00038B545682B69B3B11035284601F0CCFB13
:1020D000044680B90146284601F08EFB084B984221
:1020E0000BD108492246284601F066FB224605210D
:1020F0000620FFF7AFFB002038BD6FF00400FBE7C0
:102100000000AD0B09210000420970B5034602D062
:10211000012A17D070BD0D4E326951680029F9D0DF
:1021200003F01F0301250C689D400029F2D08A6846
:102130002A4002D04B68304698472CB1236821468C
:102140001C46F2E7024EE7E72346F8E7506E000030
:102150003C6E00002DE9F043466840F20635D0069B
:10216000337B87B002EA050554BFC2F34010032059
:1021700001F01F07B5F5837F144647EA43178DF832
:10218000030044D00FD8062D18D007D8B5B1022DC2
:102190003FD06FF0150007B0BDE8F083B5F5807F44
:1021A000F7D101250AE040F20222954233D0B5F57D
:1021B000407F32D0B5F5007FEBD1022522032ED52A
:1021C000726801238B40C2F80835326992BB07F070
:1021D0001F037F092BD0012F79D13F4A02EB8302E5
:1021E00084F48033D2F80017C3F30043C4F34044AF
:1021F00044EA430421F4E16144EA800421F0070148
:1022000044EA05230B43C2F800370020C3E7072543
:10221000D4E70425D2E70525D0E70325CEE76303FD
:1022200041BF012372688B40C2F80C35CDE74FF0F7
:10223000A042D3E710360DF102023946304601F0D4
:10224000C1FA14F4403F80460CD13946304604F0C0
:102250008FFA224B9845D8D19DF80210304601F0F4
:102260000DFBD2E701AB4FF0000903AA3946304617
:10227000CDE90439CDE90199CDF80C9001F064F96C
:10228000164B984285D114F4003315D09DF80330D5
:102290008DF80E3084F48034C4F300444B4603AA16
:1022A000394630468DF80C508DF80D4001F006FA95
:1022B0000A4B9842CDD06CE7CDE9043303AA0DF167
:1022C000030339463046039301F03EF9F0E703F586
:1022D000E07352F82330FFDE000300500000AD0B26
:1022E00008B543681B68D3F80805D3F80C1501F04E
:1022F000B7FF034B984214BF6FF00F00002008BDDA
:102300000000AD0B37B50446002201210320FFF782
:10231000A1FA63689D6901AA0021284603F060FFC5
:10232000002814DB019B2A681979186800F0C0F8AE
:1023300000280CDB60682369064A00F1080101F0FF
:1023400035FE054B984214BF6FF00F00002003B01C
:1023500030BD00BF5D2300000000AD0B0378012BF2
:1023600008D0022B08D04BB9054B0B6201F11000CD
:1023700002F07CBA034BF8E7034BF6E7034BF4E7B4
:102380000000AD0B0100AE0B0200AE0B0100AD0B67
:102390002DE9F04F8BB005460C46914601934768F6
:1023A00006694FF0FF324FF0FF33304602F082FAF9
:1023B00006F1100A00220023504602F07BFA38464C
:1023C00001F038FEDFF8C0B04FF00008C14501D879
:1023D00000242EE0237A039313F008014DD112223A
:1023E0000DF11600029104F0CCFC039B606801998A
:1023F000069003F0010220688DF8151013F0020F0B
:1024000002998DF8142008901DD109F1FF3343453E
:1024100002D9237D5B0718D57ABB202205A938464F
:1024200001F034FE584512D0184B984228D06FF076
:102430000404384601F00EFE304602F017FA20463A
:102440000BB0BDE8F08F0A46E8E74022E6E74FF41C
:1024500080420023504602F02DFA30B1384601F098
:10246000F9FD2846FFF73CFFE1E7336A5B4504F1DD
:102470000C04DCD108F10108A8E76FF08504D8E767
:102480006FF00F04D5E700BF0000AD0B0B00AD0BE4
:10249000036803F01F025B09026004D0012B0348AC
:1024A00018BF002070474FF0A04070470003005055
:1024B0002DE9F04FDFF89881DFF8989185B0154647
:1024C000824600EB8101514503D1002005B0BDE8F3
:1024D000F08FDAF80030D804C3F3432203F07F040E
:1024E00000F1AF807F2C4FEA134318F8027008BF49
:1024F0004FF0FF34222B00F2A780DFE803F0122216
:1025000028432B3243A5A5A5A54672A5A5A5A5A53B
:10251000A5A5A5A575808386A5A5A5899194979A5B
:102520009D00C5F80C45601C18D003A80394FFF764
:10253000AFFF039B012606FA03F3C0F80835B34644
:102540002CE0C5F81445631C08D00026F7E7C5F851
:102550000845E8E7621CC5F8084570D10AF1040A8D
:10256000B1E7631CC5F80C45F8D0012603A8039415
:10257000FFF78EFF039B4FF0010B0BFA03F3C0F83C
:102580000C350BE0C5F81045DDE7C5F80845002F10
:10259000D9D1671CE2D00026B3460627DAF800300E
:1025A000019303F40052002A03A81CBF4FF0000B54
:1025B00001260394FFF76CFF039A019B00EB820056
:1025C000C3F3C114D0F800273B0243EA840343EA73
:1025D0000B0302EA0902134343EA4603C0F800373B
:1025E000BCE7C5F80C45D2E7C5F86045661CDAF8CB
:1025F0000030B3D0C3F38033002BB6D095E7C5F8D5
:102600006445F3E7C5F86845F0E7C5F86C45EDE7C4
:10261000C5F82445621CA1D04FF0000B0126BDE790
:10262000C5F828457FE7C5F83045F3E7C5F83445D8
:10263000F0E7C5F83845EDE7C5F83C45EAE7002680
:1026400094E76FF0150041E76FF085003EE700BFAB
:1026500051790000F0F8FCFF036803F01F025B09EA
:10266000026004D0012B034818BF002070474FF0D0
:10267000A04070470003005002480021C2E9000159
:10268000002070470024F400F7B544680569A66B84
:1026900001AA0021304603F0A3FD00283FDB019B87
:1026A000326819791868FFF703FF002837DB00212B
:1026B0000E460127236801F5AC7253F82230002B37
:1026C0000EDB01A80193FFF7C7FF019AD0F804358C
:1026D000D34013F0010318BF07FA01F33343DEB20E
:1026E00001310429E6D102350023012101FA03F268
:1026F00032420CBF012200220133D203042B25F801
:10270000022FF3D100231A4604F10801204601F0FC
:1027100091FA044B984214BF6FF00F00002003B0F1
:10272000F0BD00BF0000AD0B2DE9F74306460022C7
:1027300001210220FFF78EF80220FFF75BF877688F
:1027400035693C684FF00008C4F800852E60D7F862
:102750000C9001AA4146484603F042FD002839DBAF
:10276000019BD9F8002019791868FFF7A1FE00280D
:1027700030DB6B7AD6F810C0012B03D0032B27D1A6
:102780004FF01008AB7A032B22D1E97A09B1012965
:102790001ED12A7A12B1022A1AD10E226B687068F1
:1027A000B3F5164F006800F0B28034D8B3F5165F69
:1027B00000F0B0801AD8B3F5966F00F0AD800CD859
:1027C000B3F5967F00F0AB80B3F5167F00F0AA80DA
:1027D0006FF0850003B0BDE8F083B3F5166F00F02D
:1027E000A480B3F5965FF3D15C4B43E0B3F5E14FC2
:1027F00000F09E8008D8B3F5615F00F09B80B3F5D0
:10280000964FE5D1564B35E047F6122E7345DFD192
:102810004FF400032EE0B3F5613F00F08D8015D832
:10282000B3F5963F00F08B800AD84DF6C02E734565
:1028300000F08780B3F5614FCAD14FF46B0319E004
:10284000B3F5E13FC4D14FF0EB7313E0B3F5612F63
:102850007AD009D8DFF80CE1734578D0B3F5E12FD1
:10286000B6D14FF0E86305E0DFF8FCE07345AFD187
:102870004FF08053C0F82435736841EA08011B68A3
:102880000A43C3F86C25D5E901010CF1040383E880
:1028900003007B68990712D505F11C0001F026F9A9
:1028A000324B984256D1287F04F10C0204F5907106
:1028B00003F0D6FE2B7F0120984000F01BFC08237C
:1028C000C4F800353B7A53B9C4F81031D4F810314C
:1028D000AB69C4F834350123C4F8383523607B680C
:1028E0009A075CBF4FF48073C4F804337B68DB063F
:1028F00044BF4FF48003C4F804336B69C4F8443513
:1029000000200123C4F84805A360E36062E74FF4A8
:102910001D03AFE7164BADE74FF49E23AAE74FF434
:10292000A033A7E74FF41C33A4E74FF41D23A1E71E
:10293000104B9FE7104B9DE74FF06C739AE70F4BDE
:1029400098E74FF4650395E74FF0706392E74FF017
:1029500080638FE76FF004003CE700BF00B0130016
:1029600000A04E0090D0030040420F000000AD0BCD
:102970000050270000C0750000F03A0000903A01B6
:10298000F8B5044607690D4604F05AF8B0B9214B72
:102990001B789BB16426606803F098FD00BB0120A2
:1029A00003F05CFE013EF6D10021212002F08AFAFC
:1029B000F0E781F31188BFF36F8FF5E74FF0200345
:1029C000EFF3118183F31288BFF36F8F60680E46B7
:1029D00003F07CFD90B981F31188BFF36F8FEDE7B1
:1029E0004FF02003EFF3118183F31288BFF36F8F51
:1029F00060680E4603F06AFD0028DAD07B691D701E
:102A000079690122204603F0A1FC86F31188BFF307
:102A10006F8FF8BD590E002070B5012383400E4A18
:102A2000BFF35B8FDC4352E8001F01EA040542E874
:102A30000056002EF7D1BFF35B8F4FF480328240F7
:102A40000648C0F80823BFF35F8FBFF36F8F0B42B8
:102A500014BF0120002070BD500B00200010014069
:102A600070B40E49D1E90034D01AC31844F10004FF
:102A700022F07F46C1E90034A6F50013B3F5400FFC
:102A800009D2074B1B681A0A1B069C19054B42F119
:102A90000005C3E9004570BC02F00ABB0804002031
:102AA000540B00201004002011B3BFF35B8F0123EF
:102AB000104A834052E800CF4CEA030C42E800C1C0
:102AC0000029F7D1BFF35B8F0B4A4FF4803383406B
:102AD000C2F80433094BBFF35B8F1B68BFF35B8FF6
:102AE000C340DB0742BF064B4FF40032C3F800215E
:102AF000704700BF500B0020001001404C0B00201D
:102B000000E100E00D4B1868010A0006BFF35F8F7B
:102B10000B4BD3F80435181841F10001B3F5801FB1
:102B20000AD2084BD3E90023904271EB030303D28E
:102B300010F1807041F10001704700BF540B00207C
:102B400000100140100400202DE9F04F85B016461A
:102B50001F469DF840A00446FFF75EFF0190FFF777
:102B6000D1FFB04271EB070354D23E4B301A67EBF2
:102B70000101984271F100014FD23B4B03EB04136A
:102B8000D3E902239F4208BF96425ED037494FF4F3
:102B9000803804F1500508FA04F8AD00C1F8488304
:102BA0002046ADB203F03EFD26F07F4B05F1804597
:102BB00004F5A87305F58835DC464FF00309029348
:102BC000029A2CF07F4341F82230C1F84483D1F8B7
:102BD0000435274A6FF00200C01A604420F07F409D
:102BE000904232D9286868B1D1F804350393A3EB39
:102BF0000B0020F07F40B0F5000F26D9204603F0EF
:102C000011FD039BBAF1000F07D109EB030C09F189
:102C10000109D5E7BAF1000F09D06FF0150520467C
:102C20000199FFF741FF284605B0BDE8F08F012369
:102C3000104ABFF35B8FA34052E8000F184342E8ED
:102C400000010029F8D1BFF35B8F07490E982301DB
:102C500001EB0412C8500F9B5360C2E902670025C4
:102C6000DDE700BF01008000F803002000100140F4
:102C7000FDFF7F004C0B00207FB51C4C1C4BC4F8A3
:102C80000833C4F848331B4B00254FF0FF304FF09A
:102C9000FF31C4F80855C3E902014FF48033C4F88A
:102CA0000433154B02264FF400320121C4F80463AB
:102CB0001120C3F880212A46FEF7CCFD1120FEF733
:102CC00099FD0E4A0123A360236013600C4B0D4A4B
:102CD0000093CDE9015500232846FFF735FF304624
:102CE000FFF7C8F8284604B070BD00BF00100140CF
:102CF00003000F00F803002000E100E0500B00206B
:102D0000612A0000FFFF7F002DE9F7432F4CD4F824
:102D1000043399070BD5D4F8043143B12C4A00236E
:102D2000C4F80431D4F80431136801331360D4F8C3
:102D30000433DA032AD5BFF35B8F264B53E8002F09
:102D400022F0010143E800100028F7D1BFF35B8FA8
:102D5000D30702D4D4F84031C3B10025C4F84051A0
:102D6000D4F84031FFF7CEFE4FF02003EFF311828D
:102D700083F31288BFF36F8F174BD3E90267B0421A
:102D8000B94106D282F31188BFF36F8F03B0BDE85B
:102D9000F0834FF0FF384FF0FF39C3E90289D3E9E0
:102DA00000101D604FF48033C4F84833C4F840511C
:102DB000D4F8403182F31188BFF36F8F0029E5D03A
:102DC000009032463B4628468847DFE70010014026
:102DD000540B00204C0B0020F803002030B5431C9E
:102DE000124C85B005D08442A8BF0446012CB8BF60
:102DF0000124FFF787FE0E4B0C4DD3E90013401A58
:102E0000B0F5000F10D22218AA4228BF2A46521845
:102E10004FF0000007490091CDE9010043F10003A4
:102E2000FFF792FE05B030BD2A46F0E7FFFF7F00B6
:102E300008040020612A000008B5FFF763FE024B7A
:102E40001B68C01A08BD00BF0804002010B5084C5C
:102E5000012363601120FEF7DBFC064BC4F8083346
:102E6000C4F84833044B4FF40032C3F8802110BD3E
:102E70000010014003000F0000E100E04FF080531C
:102E8000D3F83021082A06D1D3F83431052B02D8E3
:102E9000024AD05C70470020704700BF877900006D
:102EA000024AD2F80034002BFBD0704700E001400A
:102EB00010B54FF08053D3F83021082A4ED14FF08F
:102EC00080420021C2F80C11C2F81011C2F8381566
:102ED00002F54042D3F80414C2F82015D3F80814C0
:102EE000C2F82415D3F80C14C2F82815D3F810141E
:102EF000C2F82C15D3F81414C2F83015D3F81814EE
:102F0000C2F83415D3F81C14C2F84015D3F82014B5
:102F1000C2F84415D3F82414C2F84815D3F828147D
:102F2000C2F84C15D3F82C14C2F85015D3F830144D
:102F3000C2F85415D3F83414C2F86015D3F8381415
:102F4000C2F86415D3F83C14C2F86815D3F84014DD
:102F5000C2F86C15D3F84434C2F87035FFF78EFF11
:102F600018B13A4B3A4AC3F88C26FFF787FF18B1DD
:102F7000384BFB22C3F81825FFF780FF70B14FF0E4
:102F800080414FF08053D1F8E42ED3F8583222F02C
:102F90000F0203F00F031343C1F8E43EFFF76EFF87
:102FA00020B12D4B4FF40072C3F840264FF08053F0
:102FB000D3F83031082B1AD14FF08043D3F80024D6
:102FC000D20744BF6FF00102C3F800244FF08053D2
:102FD000D3F83431052B02D8204AD35C3BB14FF0F3
:102FE0001023D3F808224FF08043C3F858254FF040
:102FF0001023D3F80022002A03DBD3F80432002B7D
:1030000022DA174901234FF01020C1F804351224A9
:10301000FFF746FFC0F80042FFF742FFC0F8044246
:10302000FFF73EFF0023C1F80435FFF739FFBFF378
:103030004F8F0C490C4BCA6802F4E0621343CB601B
:10304000BFF34F8F00BFFDE710BD00BF0050004031
:103050004881030000F000400090024081790000A8
:1030600000E0014000ED00E00400FA0530B504681E
:10307000CCB1BFF35B8FB4FA84F3C3F11F03DBB2AF
:1030800001229A4024EA020250E8005FA54204D1DE
:1030900040E8002CBCF1000FF6D1BFF35B8FE6D106
:1030A00002480B7030BD0248FCE700BF0000AD0BCA
:1030B0000200AD0B10B50368CB40DB0714D401232D
:1030C0008B400268BFF35B8F43EA020150E8004F78
:1030D000944204D140E8001CBCF1000FF6D1BFF3CC
:1030E0005B8FEED1014810BD0148FCE70000AD0B3D
:1030F0000400AD0B014BC3F80405704700F001401C
:10310000F7B5044618B1012823D003B0F0BD4FF045
:1031100080430222C3F808230122DA60C3F80401C5
:10312000D3F80431064601238DF8073042F21075BA
:103130004FF08047D4B1012CE7D1D7F80C3403F419
:103140008033AEBB83B3012003F088FA013DF4D194
:103150002AE04FF080430022C3F808035860C3F808
:103160000021D3F800310DF10706DCE7D7F8183459
:1031700003F480333EB9002BC7D0012003F06EFA70
:10318000013DF3D1C1E7D7F8182402F00302326001
:10319000002BBAD09DF80700012803D103F05EFA96
:1031A000013DC7D1012CB0D1054B00225A71ACE7CB
:1031B000D7F80C2402F001023270002BEAD1F3E7B9
:1031C000580B0020044B1A7922B9012218609A800A
:1031D0000248704702487047580B00200000AD0BB2
:1031E0000C00AD0B08B5074B1B682BB10020FEF798
:1031F00023FB08B9FEF7FEFA4FF080430022C3F824
:10320000182508BD580B002010B510B1012843D077
:1032100010BD4FF08043D3F81814D3F81824C80316
:1032200021D502F00303012B04D013B10020FFF7D6
:1032300067FF00234FF080420220C2F818350822B1
:103240004FF4827303F180430021196002F1804240
:103250001C6801241460154A12680AB34FF08043B9
:10326000C3F80403D4E7D3F81424D107E1D5D3F885
:103270001C249207DAD40D4A12681AB10222C3F84C
:103280000423C5E7D3F80421002AFBD00022C3F8A9
:103290000421D3F80431BBE700224FF48073D1E757
:1032A0001A68002AFCD019601B68B1E7580B00208F
:1032B00010B54FF08043D3F800216AB10022C3F863
:1032C0000021D3F800210122C3F80823114B5879BB
:1032D00010B95A711B6898474FF08043D3F8042106
:1032E00072B10022C3F80421D3F80421D3F81824C2
:1032F000D3F81824920704D10122C3F818259A6044
:1033000010BD0222C3F80823024BBDE810401B6821
:1033100001201847580B0020036803F01F025B09C7
:10332000026004D0012B034818BF002070474FF003
:10333000A040704700030050034A430900F01F00FB
:10334000D35C1844C0B270478D79000070B5054653
:10335000FFF7F2FF0C4C08300E4634F81030DA0557
:1033600008D5C3F3432304EBC302284654F8333093
:1033700052689847A3682BB1E26831462846BDE8F9
:103380007040184770BD00BFA400002008B5FFF7CB
:10339000D3FF034B083033F81000400B08BD00BFCB
:1033A000A400002008B5FFF7C7FF034B083033F82F
:1033B0001000C0F3400008BDA400002008B5FFF7CE
:1033C000BBFF034B083033F81000C0F3401008BDBA
:1033D000A4000020034611F0010010B5CCB20DD1BD
:1033E000A207C4F3400012D5094AD2F8200558605C
:1033F000C2F82005003818BF012008E04FF0A041B6
:10340000D1F820251A60C1F82025002AE8D010BD87
:103410000003005010B5FFF78FFF124A083032F852
:103420001030D9051CD5C3F3432123F4F85322F8F7
:10343000103002F10E04002034F8023F13F4807FB4
:1034400003D0C3F3432399420AD001303028F3D18B
:10345000002342F831300448BDE81040FFF72ABE8F
:1034600010BD00BFA40000201C010020F0B50546DF
:1034700000200446012607468C420BD1114BD3F89D
:103480007C2132B10022C3F87C21D3F87C3140F09A
:103490000040F0BDE3B29B0003F580729B0806FA82
:1034A00003F31D420BD002F1804202F5C042D2F874
:1034B00000C0BCF1000F02D017601268184301343D
:1034C000DAE700BF00600040F7B506460846FFF7A0
:1034D00033FF194F00F108050C4637F81530DB07AC
:1034E00027D5304603F020F92046FFF767FF40B1AB
:1034F0002046FFF74BFF316800F5A270002341F82A
:1035000020302046FFF786FF002301A827F815305A
:103510000194FFF701FF019B00EB8300074BD0F8FC
:103520000027134043F00203C0F80037044803B0FB
:10353000F0BD0448FBE700BFA4000020F0F8FCFF4A
:103540000000AD0B0400AD0B2DE9FF41164680468F
:103550000846FFF7F1FE0D463168044609B32846D8
:10356000FFF720FF18B12846FFF728FF10BB002304
:10357000CDE900338DF80E308DF80F300DF10F02CC
:103580000B4628460DF10E0103F076F8474A04F188
:10359000080132F8113023F0020343F0010322F84E
:1035A0001130736863B328461F785968FFF7FAFE35
:1035B00010B1D1B13E4826E03C4A04F1080032F88F
:1035C000103023F02003DB04DB0C22F8103061B153
:1035D000032FEFD87168496891F800C0D8F800103F
:1035E000A7B90CF5A27C41F82C70304A04F108010F
:1035F00032F8113023F01C0343EA870322F811301C
:10360000B3684BBB2B4804B0BDE8F08101EB8C01E3
:1036100043EA4C33D1F810E52EF0030EC1F810E563
:10362000D8F8001001EB8C0E43F02003DEF81015E3
:1036300022F8103021F44F3121F44071CEF81015EA
:103640002902DEF8108501F47C5141EA074141EA84
:103650000801CEF81015C8E7D3E900672846FFF740
:10366000D9FE002ECED0114DD5E90023964203D1CC
:103670009F4201D1002209E00F480DF10F01FFF731
:10368000F5FC0C4B9842BED19DF80F2045F83260F6
:1036900005EBC20308345F6035F8143043EA422377
:1036A00043F4807325F81430ACE700BFA400002079
:1036B0000400AD0B0000AD0B1C0100202DE9F04310
:1036C0000C4685B08046204611461E46FFF734FE64
:1036D000054629B32046FFF765FE18B92046FFF7D7
:1036E0006DFE18BB314F05F1080937F8193013F09A
:1036F0001C0F02D04B78012B18D001238DF80F300E
:103700000023CDE900134A1C8B1C20460DF10F014C
:1037100002F0B2FF37F8193043F0030327F81930ED
:10372000002E41D02046FFF73DFE18B9204805B0D5
:10373000BDE8F08396F800C0D8F800301B4F0CF5B8
:10374000A272002143F8221005F1080237F8121086
:1037500021F02001C904C90C27F8121075781DB397
:10376000D8F80000B67800EB8C002D04D0F81035A6
:1037700023F4991323F4F853C0F81035230203F40B
:103780007C5305F440353605D0F810E52B4306F49C
:10379000801641EA4C31334341F0200143EA0E03E5
:1037A00027F81210C0F810350248C0E7A400002026
:1037B0000400AD0B0000AD0B014BC3E902127047D2
:1037C000A400002010B508461446FFF7F7FD50B1DD
:1037D0000846FFF7B1FD054B083033F810300448B8
:1037E0005B0B237010BD0348FCE700BFA400002062
:1037F0000000AD0B0400AD0B70B5184E96F880407C
:1038000005464CBB2146602206F1100003F0B9FAD0
:103810002D68306F2146884212D10023C5F87C31D3
:1038200045F30730D5F87C31FDF7E4FF4FF0004356
:10383000C5F804330A48012386F88030B36770BDA9
:10384000CBB29B0003F580727C2B08BFAC5001F11A
:10385000010108BFAB58DEE70248F0E7A4000020F2
:103860000000AD0B0C00AD0B034B93F8800000384B
:1038700018BF0120704700BFA40000200148FFF7D7
:1038800019BC00BF180100200148FFF7EFBB00BFC3
:103890001801002073B5054608460C461646FFF78A
:1038A0008DFD00B30846FFF77DFD0146D8B92046DF
:1038B000FFF76CFD04B2A40004F58072034628688B
:1038C0008150296882582144D1F8102542F0010224
:1038D000C1F810252EB12968012202FA03F3C1F8BC
:1038E000043302B070BD2046FFF726FD0F4B0830B1
:1038F00033F81030C3F38203042B12D0052B12D0FF
:1039000001A80194FFF708FD019AD0F81035D340C3
:1039100003F00103991C204602B0BDE8704002F09C
:10392000F4BE0321F7E70221F5E700BFA400002061
:103930002DE9F04F694BDFF8A881D3F80403D8F8DC
:103940007010C0B289B040F00040FFF78FFD051E37
:103950002FDAC24600235AF87C1F06A8CDE90633A9
:10396000FFF738FD5F4B01930DF118094FF0000B85
:10397000019A12F8013B0192DA0803F007031AF8E2
:10398000022022FA03F3DA071CD409F10409BBF17F
:10399000000F14D0D8F870104FF00040FFF766FD0C
:1039A000D8F87C1006A8FFF715FD0028DAD125F01D
:1039B00000450124002D79D109B0BDE8F08F4FF00A
:1039C000010BD5E7484B5B440293D9F8001000295E
:1039D000DBD0029B91FAA1F11C78B1FA81F141EAA6
:1039E00044142046FFF7A8FC0830059438F81070FE
:1039F000C808BB0819F80020039301F00701012350
:103A000003FA01F122EA010209F8002005A8FFF7F4
:103A100083FC059A039B02F5E072C7F3820650F817
:103A200022205B073746C2F3014224D5204639469F
:103A3000D6B2FFF78BFC05A80594FFF76DFC059B3C
:103A400003F5E07350F82330C3F301439E4207D1DE
:103A50000021204602F059FE3146204602F055FE74
:103A600005A80594FFF758FC059B012202FA03F311
:103A7000C0F82035A9E7022A0CD10321204602F024
:103A800044FE06F00503012BEAD139462046FFF734
:103A90005DFCE5E702212046039202F036FE032E8C
:103AA000F3D0039A032ADBD1022EEDE795FAA5F3B2
:103AB000B3FA83F304FA03F29B0003F1804303F5A6
:103AC000C04325EA0205D3F81005D3F81015C0F35A
:103AD0000520C1F30141FFF739FC6BE700600040AE
:103AE000A40000209D7900009D7900000146014856
:103AF000FFF7BCBA28010020036803F01F025B092E
:103B0000026004D0012B034818BF002070474FF01B
:103B1000A04070470003005070B505790A4C14238B
:103B20006B43E618E35833B90068022102F059FEEE
:103B300008B101233372142303FB0544207A0238B1
:103B400018BF012070BD00BF600B00202DE9F347B6
:103B50000B7F04466BBBDFF8D8900D1F01F11006F8
:103B600001F10C08012755F804AFBAF1FF3F1CD052
:103B70003378CDF804A001A8002B50D0FFF7BCFF8C
:103B8000019B07FA03F3C0F8083501A8CDF804A09B
:103B9000FFF7B2FF019B00EB8300D0F8003703EA88
:103BA000090343F00303C0F80037A84506F10106F6
:103BB000D9D191F81DC00D8B4F7D8E7D8A7EC87E38
:103BC0002368BCF1000F0BD1D1E9008ED1E902C10D
:103BD000C3F86085C3F864E5C3F868C5C3F86C151D
:103BE00042EA0022C3F80C75C3F80465C3F808550F
:103BF000C3F8102520680023C0F81031D0F8102138
:103C0000C0F80831D0F80821C0F80C31D0F80C31D8
:103C100040F3073002B0BDE8F047FDF7EBBDFFF71A
:103C20006BFF019B07FA03F3C0F80C35ADE700BF4B
:103C3000F0F8FCFF2DE9F04190F804800D4C1426BB
:103C400006FB08F6A71997F808C0BCF1000F0ED1C3
:103C5000A2517B6019B10B7F3B74FFF777FF1423F0
:103C600003FB0844044801232372BDE8F0810348A4
:103C7000FBE700BF600B00200000AD0B0C00AD0B9C
:103C800070B40C460179266815461A461A4B01EBAA
:103C9000810103EB81010368C3F82065A688C3F89E
:103CA0002465A668C3F82865E668C3F82C65036830
:103CB0002668C3F84065A688C3F84465A668C3F8BB
:103CC0004865E468C3F84C45046805F0010303EB5C
:103CD0005505C4F81455D4070CD412F0020403D0CF
:103CE000002B14BF082404240568C5F8004270BCEA
:103CF00002F042BD1024F7E7600B002038B50368DE
:103D000005790022C3F800220368012204465A60A4
:103D100071B12046FFF700FF0028FAD02368002287
:103D2000C3F80025054B142202FB053301221A7249
:103D30002046BDE83840FFF7EFBE00BF600B002013
:103D400030B500F01F04400911D0012812D10C48F1
:103D500000EB84001B02D0F800570A4C43EA8202B1
:103D60002C4042EA41012143C0F8001730BD4FF01A
:103D7000A040EDE704F5E074002353F82430FFDEA3
:103D800000030050F0F8FCFFCB7B10B433B9D1E94D
:103D900000420368C3F80845C3F80C2503688A6825
:103DA000C3F8242503793C225343054AD3582BB149
:103DB000006810BC40F30730FDF71CBD10BC704715
:103DC000880B002013B53B4B01930023C0F804314E
:103DD000D0F80421C0F82431D0F82421C0F81C31D7
:103DE000D0F81C21C0F80831D0F80821C0F8003202
:103DF0004B6381F82F300123036291F82D209A4202
:103E000018BF83604B6B8A6A934204460ED24A6A9B
:103E1000D35CC0F81C350B6803B340F286238B607B
:103E20008B682548C4F8043302B010BD91F82C30DB
:103E300013B10123C361EEE70B6A13F0400F4FF09B
:103E4000010316BFC361436181F82D30E3E72046CB
:103E500002F0F3FC28B1019B013B0193019B002B75
:103E6000F5DC91F82F305BB91348019B002BDBDCAC
:103E70000023C4F8003505231048C4F80035D3E703
:103E8000D4F8C434C4F8C4348BB10D4A0B4813F0D1
:103E9000010F18BF104613F0020F02F1010218BF04
:103EA000104613F0040F074B18BF1846DDE7034810
:103EB000DBE700BFA08601000000AD0B0100AD0BE9
:103EC0000000AE0B0200AE0B13B5334B0193002381
:103ED000C0F80431D0F80421C0F82431D0F82421EE
:103EE000C0F81C31D0F81C21C0F80831D0F80821E6
:103EF0004B6381F82F308B6A012B044617D10B6A74
:103F00005B0614D40223C4F800320123236291F823
:103F10002D20022A18BF23600B688BB140F2862344
:103F20008B608B681D48C4F8043302B010BD0123B8
:103F3000E9E7204602F081FC28B1019B013B019397
:103F4000019B002BF5DC91F82F305BB91348019BE6
:103F5000002BEADC0023C4F8003505231048C4F820
:103F60000035E2E7D4F8C434C4F8C4348BB10D4A48
:103F70000B4813F0010F18BF104613F0020F02F1A7
:103F8000010218BF104613F0040F074B18BF184664
:103F9000DDE70348DBE700BFA08601000000AD0BB2
:103FA0000100AD0B0000AE0B0200AE0B2DE9F84393
:103FB00090F804901C4E07463C2000FB09F0351891
:103FC0000C4695F82E1061BBA96032506B6085F8E5
:103FD0002D1085F8311085F83010CCB1637B85F851
:103FE000383094F80E8085F83980B8F1000F0BD185
:103FF0002068062303224146FFF7A2FE60680623DD
:1040000003224146FFF79CFE21463846FFF7BCFEDF
:104010003C2303FB09660548012386F82E30BDE8E2
:10402000F8830348FBE700BF880B00200000AD0BBE
:104030000C00AD0B036802790521C3F80015044B91
:104040003C2101FB0233022283F82E20704700BF7F
:10405000880B002003680B4A0179C3F80823D3F8C2
:10406000002222F00302C3F800220022C3F8002538
:10407000054B3C2000FB0133012183F82E1083F80F
:104080003020704786420400880B00202DE9F0475D
:10409000314F0479D0F800903C2303FB04730D46A4
:1040A00093F82D30012B944604D10B78012B06D1C7
:1040B0002A4811E0022B02D10B78012BF8D13C26C3
:1040C000274BC9F8083306FB047696F830302BB13D
:1040D000B3682448C9F80433BDE8F0878CF00403C2
:1040E000C3F3800386F83030C6F820C0A846B8E88D
:1040F0000F0006F10C0EAEE80F00D8F80030CEF835
:1041000000306B68B362EB6873626B78C9F888350E
:104110002B78C4EB041A012B07EB8A0A17D09BB942
:10412000CCF3401C3C2303FB04735146484683F800
:104130002CC0FFF747FE3C235C433A193B59002B48
:10414000CAD182F83030C7E74FF0010CEAE7514698
:104150004846FFF7B9FEEEE7880B00200500AD0BDF
:10416000864204000B00AD0BF0B5324C324887B0EC
:10417000214602F062FB002859D194F82F70FFB954
:10418000227B931E012B1BD8606AA369984217D12A
:10419000E36963626369A362236A274884F82D7028
:1041A000C3F34013032A84F82C3004D107B0BDE8D0
:1041B000F040FFF707BE07B0BDE8F040FFF784BE50
:1041C0001E4E0FCE01AD0FC533682B6047B31A4AA0
:1041D000D2F8C434C2F8C43413F0020106D001236B
:1041E0008DF80030002384F8303007E013F004022B
:1041F00009D002238DF8003084F83010D4E9003162
:104200006846984713E013F0010305D003238DF8A7
:10421000003084F83020F1E704228DF80020E2E736
:10422000236A8DF800705B0784F83070E6D507B01C
:10423000F0BD00BF880B002000300040940B002030
:10424000036803F01F025B09026004D0012B0348DE
:1042500018BF002070474FF0A04070470003005087
:10426000F7B5064602F081FB084602F07EFB01A886
:104270000196FFF7E5FF019B2E4D00EB83000C46F6
:10428000D0F80037019440F20D612B400B43C0F889
:10429000003701A8FFF7D4FF019B00EB8300012743
:1042A000D0F800372B400B43C0F80037042002F051
:1042B000D5F9092501A80194FFF7C2FF019AD0F8AA
:1042C0001035D340DB0715D401A80196FFF7B8FFDE
:1042D000019B07FA03F3C0F80C35042002F0BEF985
:1042E000304602F042FB013D042002F0B7F915F020
:1042F000FF05DFD101A80194FFF7A2FF019A012376
:104300009340C0F80C35042002F0A8F9204602F0D2
:104310002CFB042002F0A2F901A80194FFF790FF02
:10432000019AD0F810350448D34003F00103C01AB5
:1043300003B0F0BDF0F8FCFF0100AD0B38B54FF055
:104340002003EFF3118583F31288BFF36F8F064BC1
:104350009C6802F073F985F31188BFF36F8F2046D4
:10436000BDE83840FDF7D6B9C80B0020104B70B53A
:1043700053F82040013053F82060A64200D870BDA9
:10438000D4E9003595B153B12846984738B1002893
:10439000B8BF4042EB68FF28A8BFFF201870EA684A
:1043A000537843F0010353700834E6E79847FBE77E
:1043B000D073000008B50A4B012203201A70FFF7E2
:1043C000D5FF00F0F9FE0420FFF7D0FF00F04CF914
:1043D000FCF750FC034A137B23F00103137308BD61
:1043E000590E00209804002008B50348034A002114
:1043F000121A02F0D7FA08BDF80100205C0E002066
:1044000070B5002386B00122CDE90423194E1A4D60
:1044100001930F22CDE902321849142303FB005502
:1044200006EBC01604464FF4C070154B00954FF4D0
:10443000A07200FB0411304600F0D6F8737B114ADD
:10444000EE6023F0040373734FF4046304FB03333F
:1044500013446B600C4B2C74BFF35B8F53E8001F4D
:10446000013143E80012002AF8D1BFF35B8F06B098
:1044700070BD00BF18040020C80B0020C01F002022
:104480004D6A000080170020C40B002080B500207A
:10449000A6B0FFF76BFF2D4B83F308882C4D2D4EF4
:1044A0006B692D4F43F400736B610024E02385F8A2
:1044B0002230EC772C766C76AC7685F820406B6AEF
:1044C00043F4E0236B6285F82340FDF791F8FDF794
:1044D00043FA4FF0FF33AB62EB62FDF7E5FAFDF70D
:1044E0007BFA40F20113ADF8243006ABB360CDE99E
:1044F0001E44219402F04AFA0120FFF737FF022000
:10450000164DFFF733FF00F053FC154B7561059313
:10451000012314490094CDE903434FF480623B46E4
:10452000CDE90144284600F05FF86A7B064622F098
:10453000040228466A7302F0DEFA2046FFF760FFA5
:104540003A4631462846FDF7EBF900BFC01F002070
:1045500000ED00E0C80B0020B543000098040020E7
:104560009F7900004021002038B5064C064D002000
:10457000AC4200D338BD204602F018FA0028F9DB1F
:104580001C34F5E7A2010020A201002073B50C46FF
:104590004FF02005EFF3118185F31288BFF36F8F81
:1045A000C5685DB125602B68C36083690133836191
:1045B000002081F31188BFF36F8F11E052EA0306E8
:1045C00003D125606FF00B00F3E7CDE9002302462D
:1045D000083000F029FB18B9024B9B685B69236027
:1045E00002B070BDC80B00202DE9F04385B0073242
:1045F000994600F1580322F00706C0E91633109BD4
:10460000037306F140050423002743730D440F9BF9
:1046100083738846C0E9067729468760C7730446D6
:10462000FCF766FE08F140030730C4E9183620F0B5
:1046300007000E9BA06602930D9B01932D1A0C9B05
:1046400000932A464B4641462046FDF737F9054B75
:1046500067659B6803B1DB6EE366284605B0BDE87D
:10466000F08300BFC80B002070B5224C224D86B0ED
:104670002646AE4204F130040AD300F069FB1D4C1B
:104680001E4EAC4220D306B0BDE8704000F074BBB3
:1046900054F80C3C059354F8103C049354F8143C23
:1046A000039354F8183C029354F81C3C019354F8BB
:1046B000203C009354E90A2354E90C01FFF794FFCE
:1046C00054F8303C5E65D3E7D4E90A23B3F1FF3FE9
:1046D00008BFB2F1FF3F05D052EA0301206803D1C1
:1046E00000F018FB3034CCE73146183000F06AFC9B
:1046F000F8E700BF38700000F8700000916B000010
:1047000038B5836804466BB3194A926893422CD13A
:10471000C368012B03D9013BC360002038BD4FF0B3
:104720002003EFF3118583F31288BFF36F8F0169C4
:10473000806802F097F9204602F02EFAA06058B186
:1047400090F90E2022610022826702F0D4F9094814
:10475000294600F0CDFAE0E7E06085F31188BFF369
:104760006F8FDAE76FF01500D8E74FF0FF30D5E72D
:10477000C80B00205A0E00202DE9F34104461746CD
:104780001E464FF02003EFF3118883F31288BFF326
:104790006F8FC368334A7BB180689168884219D0B3
:1047A00057EA060318D188F31188BFF36F8F6FF0B3
:1047B0000F0002B0BDE8F081916891F90E102161FF
:1047C0000133E3609368A36088F31188BFF36F8FB0
:1047D0000020EEE72169F2E791F90E1090F90E3012
:1047E0009942A8BF19466FF07E029142B8BF1146A8
:1047F0008B422EDD02F036F90546CDE900761A48E7
:104800002246414600F010FA0028E1D04FF0200384
:10481000EFF3118683F31288BFF36F8FA068D0B1D6
:10482000236821699C420AD04BB193F90E3099421A
:10483000A8BF19466FF07E039942B8BF194602F02F
:1048400011F940B10848314600F052FA6FF00A0001
:10485000AFE70025D1E7002DF4D186F31188BFF32F
:104860006F8FF3E7C80B00205A0E002038B50446BE
:104870004FF02003EFF3118583F31288BFF36F8F9E
:1048800002F08AF948B10022826702F034F9294621
:104890000748BDE8384000F02BBAD4E902329A420A
:1048A00018BF0133A36085F31188BFF36F8F38BD44
:1048B0005A0E002013B54FF02004EFF3118184F35A
:1048C0001288BFF36F8F846844B1013C846081F328
:1048D0001188BFF36F8F002002B010BD52EA0304AD
:1048E00006D181F31188BFF36F8F6FF00F00F3E7EC
:1048F000CDE900230246024800F096F9ECE700BF3C
:104900005A0E0020C3897F2B12D80A4B1B6863B153
:10491000094B90F90E201B689A4209DB437BDB06AA
:1049200006D1064BC31A18BF012303F001007047DC
:104930000023FAE7F00B0020EC0B00201804002005
:10494000044BC01A044BC0105843044B01221A54A4
:10495000704700BF18050020ABAAAAAA5A0E002073
:1049600070B50E4B0E4C1E7C06EB460304EBC304E5
:104970000546204602F063F90A4B002228469A5564
:10498000FFF7C0FF48B1084B08491A68013A2046B2
:10499000D317BDE8704000F015BB70BDC80B0020F8
:1049A000180500205A0E0020F00B0020414900009D
:1049B00038B50D4D2B4653F8184F9C4200D004B922
:1049C000EC68AB6838B95A7BD20604D1A26912B937
:1049D000DA897F2A05D89C4202D02046FFF7C0FF23
:1049E00023466B6138BD00BFC80B002070B590F93D
:1049F0000D20437B002A014604DA03F07F03437352
:104A000002F03FF84B7B154A63F07F0310464B736F
:104A100050F8183FD469834208BF002323B9C1E985
:104A200000042160D1610CE091F90E5093F90E6001
:104A3000B5420ED0AE420CDD5868C1E900300160CD
:104A400059609068431A5842BDE870405841FFF7DA
:104A5000AFBF9C42E3D01B68E0E700BFC80B00205B
:104A600070B490F90D30427B002B29DBD30627D19F
:104A700083692BBB134962F07F0242730A4652F8E6
:104A8000184F944218BF2346CC6923B9C0E90024CB
:104A90002060C8610CE090F90E5093F90E60B542A9
:104AA0000AD0AE4208DD5A68C0E900321060586092
:104AB00070BC0020FFF77CBFA342E7D01B68E4E78F
:104AC00070BC7047C80B002008B590F90D20437BDF
:104AD000002A014604DA03F07F03437301F0D1FF9B
:104AE000044B9868431A58425841BDE80840FFF704
:104AF0005FBF00BFC80B002070B515461C460646B8
:104B000001F0D1FFB4F1FF3F08BFB5F1FF3F08D07E
:104B10002A46234606F118000249BDE8704000F01D
:104B200051BA70BD916B00002DE9F041002A437B22
:104B30000E460CBF10210821194204460AD10B432E
:104B4000DD0903F09F0211D14273082914D001201E
:104B5000FFF72EFF1B4B9B68A3422CD1EFF305837D
:104B60004BBB3046BDE8F041FCF7EABD03F01F0344
:104B7000437301F086FFE8E7A36813B1204601F014
:104B800088FF04F1180002F05AF804F158074FF0BA
:104B90000008A56DBD42DAD0002DD8D0284601F01E
:104BA00078FF05F1180002F04AF8C5F87880284629
:104BB000FFF756FFEDE786F31188BFF36F8FBDE86F
:104BC000F08100BFC80B002038B54FF02003EFF391
:104BD000118583F31288BFF36F8F104B104A9C68C6
:104BE0001068A04206D1FFF7BBFE85F31188BFF322
:104BF0006F8F38BD00211B7C11600A4AD35C002BEB
:104C0000F3D02046FFF77EFE0028EED0637BDB0664
:104C100002D12046FFF7EAFE2046E4E7C80B002059
:104C2000E80B00205A0E002070B50C480C4D866829
:104C30002E600C461146DDE904234FF02006EFF309
:104C4000118586F31288BFF36F8F8068FFF754FFDA
:104C50002046BDE87040FCF773BD00BFC80B0020C4
:104C6000E80B0020F8B504464FF02003EFF311865F
:104C700083F31288BFF36F8F437BDA0649B219D1F1
:104C80008569BDB903F07F03437301F0FAFE437BEE
:104C9000164A817363F07F034373134653F8180F6A
:104CA000984218BF0546D0695DB9C4E90030046078
:104CB000D46111E0A173002086F31188BFF36F8FD8
:104CC000F8BD95F90E70B9420BD08F4209DD6B68C3
:104CD000C4E900531C606C600120FFF769FE0120ED
:104CE000EAE7A842E1D02D68DEE700BFC80B00204C
:104CF00049B9EFF3058030B9054B5A699B689A4270
:104D000001D0FCF71DBD81F31188BFF36F8F704791
:104D1000C80B002010B54FF02002EFF3118482F38E
:104D20001288BFF36F8F427B510704D484F311883C
:104D3000BFF36F8F10BD22F004024273FFF790FEA5
:104D400021460248BDE81040FFF7D2BF5B0E0020AD
:104D50004FF02003EFF3118183F31288BFF36F8FBD
:104D6000044B9A68D37B013BD37381F31188BFF363
:104D70006F8F7047C80B002010B54FF02003EFF382
:104D8000118483F31288BFF36F8F084B9A68D37B2B
:104D90000133D3730020FFF70BFE84F31188BFF3B8
:104DA0006F8FBDE8104001F01FBF00BFC80B00208F
:104DB000024B03F11802C3E906227047C80B00201A
:104DC000F8B54FF02003EFF3118583F31288BFF39A
:104DD0006F8F19498868437B03F07F03437301F0A9
:104DE00050FE8B685A7B084662F07F025A7350F877
:104DF000182FCC69824208BF002222B9C3E90004FF
:104E00002360CB610CE093F90E6092F90E70BE4204
:104E10000ED0B7420CDD5168C3E900210B6053602E
:104E20000120FFF7C5FD2846BDE8F840FCF788BC27
:104E3000A242E3D01268E0E7C80B002050EA010369
:104E40002DE9F04105460E4603D1FFF7B9FF0020DA
:104E50002CE0831C71F1FF332ADB01F006FF2C18D4
:104E60004FF02003EFF3118883F31288BFF36F8FA5
:104E7000114F124BB8681860FFF726FEB86810494A
:104E80002A463346183000F09DF8BA68537B43F049
:104E9000100353734046FCF753FC01F0E6FE201A62
:104EA00063EB0303012873F10003D0DBBDE8F0815D
:104EB0006FF00104241AD3E7C80B0020E80B002090
:104EC000916B0000B1F1FF3F08BFB0F1FF3F08B5A3
:104ED00006D1084B986801F01EFE4FF0FF3008BD68
:104EE000FFF7ACFF4FF47A7380FB0303C00B40EA7B
:104EF0004340F4E7C80B0020014B9868704700BF9F
:104F0000C80B002008B50648064A0749121A01F0E6
:104F10004BFDBDE80840054A0549064801F044BD7F
:104F200000000020F4010020E479000000000000EF
:104F3000E479000000000020034B1B680BB9FDF76B
:104F40007BBF0020704700BFF40B002010B50E4B54
:104F50001C689C4204D1FFF7EFFF6FF0004010BDCA
:104F6000FFF7EAFF002CF8D0D4E904321B1A62EBF9
:104F7000E072B3F1004F72F10001EEDA002AACBF2B
:104F800018460020EBE700BF2C01002030B570B1BF
:104F90000B4B5B6898420AD0036843B1D3E9042104
:104FA000D0E90445121941EB0501C3E90421D0E918
:104FB000003213605A600023C0E9003330BD00BFE7
:104FC0002C010020B3F1FF3F08BFB2F1FF3FF8B55D
:104FD00004461D4616465CD081604FF02003EFF377
:104FE000118783F31288BFF36F8F013275F1FF339E
:104FF00024DA2D49D1E900206FF001039B1A4FF00C
:10500000FF3262EB00009E1B60EB0500012E70F189
:10501000000301DA01260020C4E90460234ED6F81B
:1050200000C07568B44508BF4FF0000CBCF1000F1C
:105030000DD1C4E900652C6074601CE0FFF77CFFB3
:10504000013645F10005361845EBE070E4E7DCE990
:105050000420D4E90431934271EB000E1ADAD21A1B
:10506000DCF8043060EB0100CCE90420C4E900C3A3
:105070001C60CCF804403368B34206D09C4204D193
:10508000FFF764FF0021FDF7A9FE87F31188BFF346
:105090006F8FF8BD9B1A61EB0001AC45C4E9043188
:1050A000C7D0DCF800C0C1E7300500202C0100208B
:1050B0002DE9F84F4FF02003EFF3118C83F31288A2
:1050C000BFF36F8FDFF8B0A0DFF8B0902C4FC9F8B6
:1050D0000000DAF800000024504508BF0020002539
:1050E000D7E90021D9F80030E04680B3D0E9046C5C
:1050F0004FEAE37EB3427EEB0C0B05DAF61A6CEB5B
:105100000E04C0E9046422E0B21841EBE671C0E984
:105110000445C7E90021FFF739FF88F31188BFF381
:105120006F8F836898474FF02003EFF3118883F364
:105130001288BFF36F8FD9F80030DAF800009B1B9C
:105140005045C446C9F80030CAD1D7E900219A18A1
:1051500041EBE3730024C7E90023C9F80040FFF7DF
:10516000F5FE2146FDF73AFE88F31188BFF36F8FF5
:10517000BDE8F84FFFF728BD2C010020F40B0020FC
:105180003005002010B54FF02003EFF3118483F3B6
:105190001288BFF36F8FFFF7CFFE064A0346D2E9AE
:1051A0000001181841EBE37184F31188BFF36F8F8E
:1051B00010BD00BF30050020014800F06ABD00BFEF
:1051C000A479000010B50A4C23681BB101232360A9
:1051D000002010BD00F0EAF80028F7D001380628BA
:1051E00003D8044B53F8200010BD034810BD00BF86
:1051F000F80B0020E8730000FE8FFFFFBFF34F8F16
:105200000549064BCA6802F4E0621343CB60BFF362
:105210004F8F00BFFDE700BF00ED00E00400FA057E
:1052200010B4094B09490A4C4FF0FE32C3F8002470
:105230004968C3F80424C3F80824C3F80C240023E5
:10524000C4F8003510BC084700B0025034010020FB
:1052500000A00250D0E90012014BC3E900127047D0
:105260003401002010B5044650B1636813F0685F44
:1052700005D0064A934202D000232360626010BD2D
:10528000034B04485B689847EFE700BF2C5F5CA9BD
:105290003401002004740000C8B143680D4A9342F1
:1052A00013D013F0685F0ED0012350E8002F194689
:1052B00040E8001C9CF0000FF7D1012AF5D0BFF3A5
:1052C0005F8F0020704704487047044870476FF4B0
:1052D000E04070472C5F5CA9E98FFFFFEA8FFFFF7A
:1052E00080B14368094A93420AD013F0685F05D041
:1052F000BFF35F8F00230360184670470448704770
:10530000044870476FF4E040704700BF2C5F5CA911
:10531000E98FFFFFEA8FFFFF10B5044620B1044B71
:1053200063600022226010BD0248FFF779FFF6E7B4
:105330003A00003A2C74000070B5D0E90023174CF5
:10534000174D6360D0E90230C4E90230226048683A
:10535000D1F800C0134BC3E900C0D5F81801D1F84B
:1053600008C0C3F808C010F0685FD1F80CC0096924
:10537000C3F80CC0196110D00B49C5F8BC1100234B
:10538000C5E9453105F58A70C5F8B83190472368FD
:1053900005F5DC70BDE87040184770BD5001002075
:1053A000100C00203C0100202C5F5CA938B500F0F7
:1053B0002FF820B1032400F063F8204638BD00F038
:1053C00031F898B900F0ACF898B90F4DD5F82839F4
:1053D0001B0EF02B08D1D5F8242A0C4B9A420AD088
:1053E000072400F017F8E6E70624FAE7042420462D
:1053F00038BD0024F5E7012000F092F804460028AB
:10540000F7D1C5F80C0AD8E700B002500000E02040
:105410000020704700207047014BC3F8040A704712
:1054200000B0025010B5114800F048F800B110BDAE
:105430000F4800F043F80028F9D10E4C204600F048
:105440003DF80028F3D10C4B0C481C6000F036F8F6
:1054500001460028EBD100F02DF8044608B12046A3
:1054600010BD00F03FF82046FAE700BF9001002091
:105470008C01002088010020800100208401002090
:1054800008B5084800F024F8074800F021F807485C
:1054900000F01EF8064800F01BF8BDE8084000F0D8
:1054A0000BB800BF900100208C0100208801002073
:1054B0008401002000207047704700BF08B5034BEF
:1054C00002681B6810689847002008BD5001002042
:1054D00008B5034B02685B6810689847002008BD58
:1054E0005001002070B5094C094D2069AB68984700
:1054F00018B1084B08485B689847084AEB68206970
:1055000000211160BDE87040184700BF3C01002039
:105510005001002034010020507400000C0C0020C9
:10552000F8B51A4D1A4E0446B26828699047E8B992
:10553000184F3B684CB1A3B1012B19D0013B3B6024
:105540002869F36898470020F8BD43B9124A012141
:10555000C2F800151149D1F81029002AFBD10133F6
:105560003B60F368286998470020F8BD0C48F8BDF7
:105570000A4AD2F81039002BFBD1074A6FF07E405F
:10558000C2F80035FFF748FF3B68D7E73C01002031
:10559000500100200C0C002000A0025000B002506E
:1055A000E98FFFFF0FB407B5064B04AA186852F83D
:1055B000041B019200F0A6F803B05DF804EB04B000
:1055C000704700BFB07100000EB470B589B00DAD6A
:1055D00004461C22002101A855F8046B01F0D1FB00
:1055E00002238DF806300B4B029304F10043013B7C
:1055F0002A46314601A806930594009500F082F8EA
:105600000028A4BF0023235409B0BDE8704003B0B4
:10561000704700BF936D0000242A2DE9F041044635
:1056200001D8012A4CD101F0BDFB354B16221A508E
:1056300001B10C6000273846BDE8F08135462E46A2
:1056400016F8010B2028F9D0A0F10907042F034612
:10565000F4D92B2836D02D2837D14FF0010C6B7898
:10566000AE1C302B38D1307840F0200078282FD174
:1056700032F010002CD173783446102202360CF12F
:10568000004001380027B0FBF2FE02FB1E08392B58
:1056900082BF03F1FF3343F02003263B303B9A42A5
:1056A0001ED9774502DC03D1984501D24CF0020C9B
:1056B000354607FB023715F8013B34462E46E6E730
:1056C0000546BCE74FF0000CC9E74FF0000CC8E7F7
:1056D000002A08BF0822D2E7002A08BF0A22CEE724
:1056E00001B10C601CF0010F18BF7F421CF0020FCB
:1056F000A1D0074601F056FB014B22221A509AE72F
:105700000C0000002DE9F04F8DB0436802938378C0
:1057100015469A07804640F10D8100240E78002E30
:1057200000F00A81252E0BD04B1C03930134029B01
:105730004146304698470028C0F2F6800399EDE7CD
:105740004E788B1C252E0393F0D00027B946BB461C
:10575000BBF11F0F38D8A6F12003102B0AD8DFE8C1
:1057600003F02A0909300909092109090928092D25
:1057700009091F00A6F13003092B33D92A2E37D18E
:105780001BF0400F55F8043B40F08280002BA7BF70
:105790004BF0200B9946C3F100094BF0280B01E0B8
:1057A0004BF0010B039B13F8016B0393002ECFD139
:1057B00030E04BF0020B4BF0040BF3E74BF0080B1F
:1057C000F0E74BF0100BEDE7BBF17F0F19D8A6F116
:1057D0003003092BD2D81BF0400F03D00A2101FB64
:1057E0000737DFE70A2101FB09394BF0200BD9E726
:1057F0002E2E06D11BF0400F40F09E804BF0400B48
:10580000D0E76C2E31D02BD8682E36D06A2E3CD003
:105810004C2E3AD0002F46F02003B8BF2BF04002A8
:10582000A3F16501BCBF1FFA82FB0027022901D941
:10583000612B2FD1073525F00705DFF8ACA208351D
:1058400007271BF0080F66D00AEB070B56465E458C
:1058500063D1A4EB0A0A06EB0A02A9EB07096FE180
:10586000742E9FD07A2E9DD0D4E71BF0800F18BFE6
:105870004BF4007B4BF0800B94E71BF4807F18BF48
:105880004BF4007B4BF4807B8CE74BF4207B89E767
:105890001F4687E7A6F16301122900F2F080DFE8D6
:1058A00011F013004F00EE00EE00EE00EE004F008E
:1058B000EE00EE00EE00EE00EE00FE00E900EE006D
:1058C000EE001B00EE00AF0055F8043B8DF81830D9
:1058D00001270DF1180AB4E755F804AB834BBAF170
:1058E000000F08BF9A461BF0400F14BF39464FF017
:1058F000FF31504601F0D4F90746A2E7029B41462A
:105900002020984700280FDB013EB742F6D34C44D5
:10591000A41BB14698E74E46F7E716F8010B029B29
:1059200041469847002892DA98F8023043F0040381
:1059300088F802304FF0FF3420460DB0BDE8F08FFC
:105940001BF0800F34D01BF4007F2CD0073525F0DE
:105950000705AA4669685AF8080B2BF010050029BC
:10596000ADB237DA404261EB410145F480650DF19B
:10597000180B0A235A4601F09FF9A0EB0B03019381
:105980006B0662D5019B25F001019F4289B240F36D
:10599000A180002E00F0998015F0100240F09C804C
:1059A000BB460D4623E0AA465AF8040BC117D4E7BC
:1059B000AA461BF4807F5AF8041B01D10846F5E77C
:1059C0001BF4007F15BF48B208B241F3C01141F388
:1059D000C031C2E750EA0103C9D11BF0400FC6D065
:1059E000002FC4D12BF0110295B2BB46019740F2B3
:1059F000064115EA01021CBF0BF1010B00222CE04D
:105A00002BF010021FFA82FB0A231BF0800C49D0F6
:105A10001BF400711DBF073525F00705AA46AA46ED
:105A20001ABF5AF8080B69685AF8040B50EA0105C6
:105A300045D12BF016051BF0400FADB242D0002F20
:105A400040D12BF0170295B2019715F0100248D003
:105A5000019B002E42D103F1010B29075AD4EB0719
:105A600006D5D9456FDD0199A9EB0B035F18CB462D
:105A70005B4649E04BF0100B10237826C5E7782BE6
:105A800004D1C6F1780343F01003BEE7029B414600
:105A9000252098470028FFF647AF023447E6082341
:105AA0000026B2E7AA461BF480715AF8040BBDD059
:105AB0001BF400711ABFC0B2614680B2B6E72BF08A
:105AC000060295B20DF1180B54E725F01105ADB2A1
:105AD000BB468CE70D46B8E73B460D4603F1020B8B
